:040000006F20401A13
:100004000000000000000000900000206E070020A7
:10001400A9BDF9F528080020000000000000000038
:1000240028080020900000200000000000000000CC
:10003400900000200000000090000020000000005C
:100044009000002090000020840E002090000020EA
:1000540090000020D020002090000020000000002C
:1000640090000020900000209000002090000020CC
:100074008E08002090000020A4080020900000209A
:1000840090000020900000209000002090000020AC
:1000940001A04111814601468145114506C6EF0084
:1000A400D06EB727004011472383E780B7F700E0FD
:1000B400938707D0984B6D9B98CB984B5D9B98CBBF
:1000C4007300501001000100B2404101828001110F
:1000D400814601468145114506CEEF00106BB727D6
:1000E400004011472383E780B717004083C6E70227
:1000F40003C5E7041307800893F6C60F136535009C
:1001040093E61600733607801376860832C0010022
:100114000100930570052380B704130680FA238039
:10012400C704010001002382070223800704024858
:100134007328088001000100733807801378880849
:1001440042C2010001002380B7042380C7040100D8
:1001540001002387D7022387A7042380070492463C
:10016400F3A6068001000100F336078093F68608A3
:1001740036C4010001002380B7042380C7040100B2
:10018400010083C6B70493E60602A385D70423803F
:100194000704A246F3A6068001000100B7F600E0BA
:1001A400938606D0884A1365450088CA884A5D99B3
:1001B40088CA730050100100010073370780137759
:1001C40087083AC6010001002380B7042380C704CE
:1001D4000100010003C7B7041377F70DA385E704F3
:1001E40023800704B247F3A7078001000100F2400F
:1001F400056182803971B7F5070022DC81462A84C3
:100204003010E105194506DE02D423160102EF0081
:10021400D057B717004083C6E70203C5E7041307A6
:10022400800893F6C60F1365350093E616007336FF
:1002340007801376860832C6010001009305700515
:100244002380B704130680FA2380C7040100010049
:1002540023820702238007043248732808800100A0
:100264000100733807801378880842C80100010030
:100274002380B7042380C704010001002387D70229
:100284002387A70423800704C246F3A6068001003F
:100294000100F336078093F6860836CA0100010090
:1002A4002380B7042380C7040100010083D607021A
:1002B40071757D15E98E2390D70223800704D246F9
:1002C400F3A606800100010037F500E0832605D17E
:1002D40093E646002328D5D083D607026575110519
:1002E40093F60660C18EC98EC206C182733507803B
:1002F400137585082ACC010001002380B7042380EC
:10030400C7040100010003C5F70013650504A387B2
:10031400A7002390D70223800704E246F3A60680B1
:10032400010001009166758C1DE87337078013770F
:1003340087083ACE010001002380B7042380C70454
:100344000100010003C7B70413670702A385E7048C
:1003540023800704F247F3A707800100010037F761
:1003640000E0832707D1DD9B2328F7D073005010CA
:100374000100010013078008F337078093F787080B
:100384003ED001000100B71700401305700523801B
:10039400A704930580FA2380B7040100010083D6E3
:1003A400070271767D16F18E2390D702238007040D
:1003B4008256F3A60680010001000DEC7337078016
:1003C400137787083AD2010001002380A704238011
:1003D400B7040100010003C7B7041377F70DA38521
:1003E400E704238007049257F3A707800100010064
:1003F4005145FD2EF250625421618280397152D4EC
:1004040081462A8A01468145114522DC26DA06DE28
:100414004AD84ED637140040EF0030378347E40201
:100424000347E4049304800893F7C70F1367370066
:1004340093E71700F3B6048093F6860836C60100E6
:1004440001009309700523003405130980FA230081
:100454002405010001002302040223000404B2461F
:10046400F3A6068001000100F3B6048093F6860823
:1004740036C80100010023003405230024050100CF
:1004840001002307F4022307E40423000404C24701
:10049400F3A707800100010013055002D928B7F71C
:1004A40000E0938707D0984B1367470098CB73B746
:1004B4000480137787083ACA010001002300340539
:1004C40023002405010001000347F4001367070417
:1004D400A307E400230004045247732707800100A4
:1004E400010073B70480137787083ACC0100010038
:1004F4002300340523002405010001002167336A29
:10050400EA0023104403230004046247732707808E
:1005140001000100984B5D9B98CB730050100100C3
:1005240001008146014681451145EF001026F3B4D0
:10053400048093F4840826CE0100010023003405CE
:1005440023002405010001008347640493E7170096
:100554002303F40423000404F247F3A707800100F3
:100564000100F2506254D2544259B259225A2161C4
:100574008280011113078008F337078093F78708F7
:100584003EC201000100B7170040930570052380A7
:10059400B704130680FA2380C7040100010083C650
:1005A400B70493F6F60DA385D70423800704924677
:1005B400F3A606800100010093760502D5CEF3363A
:1005C400078093F6860836C4010001002380B7042F
:1005D4002380C70401000100B70614007D89558DEE
:1005E40088C7010001000100010023800704A2461E
:1005F400F3A606800100010073370780137787088C
:100604003AC6010001002380B7042380C704010017
:100614000100010001003727004093061005A303E1
:10062400D78023800704B247F3A7078001000100A5
:1006340093078008F3B7078093F787083ECE01003D
:100644000100B7170040130770052380E704130760
:1006540080FA2380E7040100010003C7B70413678D
:100664000708A385E70423800704F247F3A707805C
:10067400010001000561828093760504BDC6F3364E
:10068400078093F6860836C8010001002380B7046A
:100694002380C70401000100B706140093860604F2
:1006A4007D89558D88C70100010001000100238068
:1006B4000704C246F3A606800100010073370780D1
:1006C400137787083ACA010001002380B704238006
:1006D400C704010001003727004093062005A30347
:1006E400D78023800704D24781B7733707801377F5
:1006F40087083ACC010001002380B7042380C70493
:100704000100010098471367070C98C7238007046A
:10071400E24719BF0111814601468145114506CEC4
:10072400EF00B00693078008F3B7078093F78708B4
:100734003EC601000100B71700401307700523806F
:10074400E704130780FA2380E7040100010003C7CC
:100754006704136717002383E70423800704B24761
:10076400F3A7078001000100F24005618280411176
:100774008146014681451145EF0030011307800889
:10078400F337078093F787083EC401000100B717C9
:100794000040130670052380C704930680FA238063
:1007A400D70401000100FD552396B70223800704F6
:1007B400A245F3A505800100010073370780137774
:1007C40087083AC6010001002380C7042380D704A8
:1007D4000100010003C76704136717002383E704BC
:1007E40023800704B247F3A707800100010001A09A
:1007F400BD473305F50201007D1575FD8280411169
:1008040022C426C206C6AA84014463179400B240D7
:10081400224492444101828005041305803E42042F
:10082400C13F4180DDB700009305000273A04580FD
:1008340082457390153492402242B2424243D243DD
:100844006244F244025592552256B2564257D25748
:100854006258F25806499649264AB64A464BD64B40
:10086400664CF64C065D965D265EB65E465FD65FC8
:100874000961730020304111B7170040985F3AC6F0
:10088400945F3247E39CE6FE324541018280B7170C
:100894000040130700032388E702854723A0F1845F
:1008A40073002030411122C626C44AC2972000E0BA
:1008B400E780400CC167E98F2A8493740540638FF5
:1008C40007269377150099C703C51185972000E083
:1008D400E78060F0B70704003377F400630907107A
:1008E40093876708E18F95CB83C7E18403C7D184DD
:1008F4009386E18463F2E70A03C7060093071700AF
:1009040093F7F70F2380F60093874197BA9703C5AF
:100914000700972000E0E78000EC9DC03705001039
:1009240013050540972000E0E78020068D472384C7
:10093400F184054523890184972000E0E78080E362
:100944009377041099CF13050010972000E0E780F7
:10095400C0030545972000E0E780C0E19547238464
:10096400F1849377042091CB13050020972000E0B5
:10097400E780A00191472384F18405651305058070
:10098400B377A40063820722972000E0E780E0FFAA
:1009940099472384F18409AC83C7018589CB054534
:1009A40023890184972000E0E780C0DCBDB7854738
:1009B400814513050040A387F184972000E0E78078
:1009C400A0DF814513050020972000E0E780C0DE0A
:1009D400814513050010972000E0E780E0DD054520
:1009E400972000E0E780E0D6238901843DB7937720
:1009F400240089CB83C7D184E1C30545972000E057
:100A0400E78060D9937704049DCB03C9E1849307FD
:100A140019002387F184972000E0E78060DC938746
:100A24004197CA972380A70003C7D18483C7E18471
:100A340063FDE7080545972000E0E780C0D5E38122
:100A440004F03705001013050540972000E0E78007
:100A5400C0F383C4E184938714002387F18497202F
:100A640000E0E780E0D793874197A6972380A7000B
:100A740083C70185E39F07EA854781451305004045
:100A8400A387F184972000E0E78000D38145130514
:100A94000020972000E0E78020D281451305001054
:100AA400972000E0E78040D10545972000E0E780EB
:100AB40040CA2389018469B50145972000E0E78095
:100AC40080CD8547A384F18435BF0145972000E09C
:100AD400E78060CC9387918403C7070021CFA38468
:100AE400018483C7018589CB0545972000E0E78011
:100AF40060C823890184A1B7854781451305004057
:100B0400A387F184972000E0E78000CB814513059B
:100B14000020972000E0E78020CA814513050010DB
:100B2400972000E0E78040C90545972000E0E78072
:100B340040C2C1B705472380E70011B7937725006A
:100B440095CBB707040093870708E98F138721859E
:100B5400DDC391472300F70023860184A385018424
:100B640083A7418481CB9C4391C79385B18413852A
:100B740041958297B7070400E18FE1C705459720A7
:100B840000E0E78040C1B5CC3705001013050540EF
:100B9400972000E0E78060DF0545972000E0E780CC
:100BA40080BF0144238901848567E18F89CB056572
:100BB400972000E0E78060DD9D472384F1849167FE
:100BC400E18F89CB1165972000E0E78000DCA14725
:100BD4002384F184A1677D8C09C82165972000E0F6
:100BE400E780A0DAA5472384F1843244A244124961
:100BF4004101730020308D472300F70023850184D1
:100C040095BF93774408E38D07D283C7C18403C794
:100C1400B1849386C1841305F00F63FFE70003C713
:100C240006009307170093F7F70F2380F6009387C6
:100C34004195BA9703C50700972000E0E780A0B963
:100C440001B393770404A1C383C6A184FD4713872A
:100C5400A184014563E5D7028347070013F9F70F21
:100C6400850793F7F70F2300F700972000E0E7804C
:100C740020B793874193CA972380A70005459720FF
:100C840000E0E78040B1937704018DC737570040F7
:100C94008357078093E717002310F78083A74184C5
:100CA40081CBDC4391C783C5A1841385419382978B
:100CB40023850184E38604C8370500101305054025
:100CC400972000E0E78060CC0545972000E0E780AE
:100CD40080ACBDB1411122C426C21384318506C63D
:100CE400971000E0E780A0618347040005479384E0
:100CF400C185850793F7F70F2300F4006398E70095
:100D0400971000E0E78080562390A40083470400F6
:100D14001307800CB3F7E70239472300F400B71731
:100D24000040238CE704971000E0E780E05F83979E
:100D34000400B24022443E959307A0413305F502D6
:100D440093070020924441013345F502FD779387D0
:100D5400273B3E95420541818280011113054004E1
:100D640006CE972000E0E780C023F577938717A08D
:100D74002316F1006C00C147054785460D4613054F
:100D840040042307F100972000E0E7802027F24089
:100D940005618280B717004083A7470CB183858B18
:100DA400171700002304F7508280011122CC2A84F3
:100DB4001305400406CEA3050100972000E0E78058
:100DC400401E0147854605469305B10013054004BE
:100DD400972000E0E7808022634F05021307400656
:100DE400854609466C0013054004972000E0E7801F
:100DF400402E634205020357C10001459317870043
:100E04002183D98F139707014183D207D18331837B
:100E1400B397E7001CC0F24062440561828041112F
:100E240022C406C683C751851714000013048437EF
:100E340099C7A38A018483D761852318F400593D97
:100E440083A78185A306A400A304F40013D7870015
:100E54002181C183A305F4002307A4002305E40032
:100E6400153F9717000083C76744B337F000A30901
:100E7400F400B240224441018280411106C6EF00D1
:100E8400807CF5BFB717004003D7E7098566758FE7
:100E94000DCF0547A38AE1849386618503D70600B5
:100EA4009387470C9C4305072390E6000567F98F59
:100EB400894591E38D450565972000E0E7808081B1
:100EC400B71700400567239FE7087300203023030A
:100ED400048015472303E48001002302A480828058
:100EE40083076480E3CE07FE2303048082808307A4
:100EF4006480E3CE07FE03454480828083076480D8
:100F0400E3CE07FE2302A4808280411126C44AC294
:100F14004EC006C61377F50BAD47AA892E899544B2
:100F24006306F70019456537653F8D444E8545379F
:100F3400FD59FD1463983401B240A2441249824918
:100F440041018280135509011375F50F453F2209AC
:100F5400CDB7011126CC06CEB7040800513715458C
:100F6400BD37713769372AC6A53F324593771500D7
:100F740089EB136515001375F50FF240E244056122
:100F84008280FD14E9FC0145CDBF397126DC4ADAC3
:100F94004ED852D656D45AD25ED006DE62CE66CC35
:100FA400B7E700E07D5783AA070022C603AA4700DB
:100FB40023A0E71823A2E718B7170040130770050A
:100FC4002380E704130780FA2380E70483C74704D8
:100FD400930B75FFB684E20793FBFB0F8546AA8942
:100FE4002E8B328937240040E187015763FA76015A
:100FF4006308D5008946130700026313D50001571F
:10100400D98F93F7F70FB71C00402382FC041147D4
:101014002303E4801305F00F5D3D094CD135636D66
:101024007C11B7050700DA9537870700795563F215
:10103400E504B3879500636EF702370B0800A947F0
:1010440033EB65016399F90689E48144513D2685B2
:101054000DA0DA850945553D05090345F9FFFD1441
:10106400050B693D81C49377FB0FFDF7DD3569FD01
:101074007D55B7170040130770052380E704130755
:1010840080FA2380E70403C74704418B2382E704E3
:10109400F250B7E700E023A0571123A24711E2540E
:1010A40032445259C259325AA25A125B825B724C70
:1010B400E24C21618280A5476395F906856913098D
:1010C400F00FB3069900B3742B01B6941349F9FFDA
:1010D400B3749900856B33796901416B9387F9FF88
:1010E400B3F7270199E363FC340193D94900C1475D
:1010F400E3E637FF99BF0569C1697D19D9B71305BF
:10110400800D638869011305000263847901130566
:101114001008CA85DD3B353D21DD4E99B384344149
:10112400D9B7DA852D45D533CA94E30099F2050978
:101134007D3BA30FA9FED5BF9387F9FF93F7F70F64
:101144006361FC0C83C71C0413073008631FF70496
:1011540037070800636BEB04B3079B00B706100066
:1011640063F5D704334BEB0089476393F906898011
:10117400D549E38C04ECDA850945413B1109032781
:10118400C9FF91472320E48003076480E34E07FEF0
:1011940023033481FD17EDFBFD14110B81C49377F8
:1011A400FB0FE9FF7D3371F5E1B5B717004003C7C5
:1011B4005704B70708001377070219E3B787070036
:1011C4007955E378FBEA33079B00E3FFE7F855B56D
:1011D4008547E382F9F2DA852D45053B9389F4FFCF
:1011E400E38504E6293393F7390091EB83260480E1
:1011F4000327090093074900E39AE6E43E89CE8475
:10120400F1BFB5476396F9001305900BC93135BD9D
:10121400B1471305B00AE38BF9FE99476391F904CA
:10122400B7050800B365BB002D45C53181448D4B1E
:10123400A149753963967401832704802320F9003A
:101244008504E39834FF8327048013172B01635527
:1012540007002312F900D5BB2322F900FDB39D47F3
:101264006399F90281451305B0044531BD44232037
:10127400090023220900FD599D3993F77400CA9788
:1012840003C70700FD14398D2380A700E39634FFBC
:101294006DBBA1476392F9046D398144630D0B0062
:1012A4008D479304C0036308FB00930400056304A3
:1012B4008B01930440041375C507E30895D81945B9
:1012C400393139390545213126850D3909453D31F5
:1012D4004931E31C05D669BB91476399F9001305AD
:1012E4006006F536F53E130590090DB7E38F09D472
:1012F400F154A9BBB7C7004003A7C72023A6072002
:101304000F10000001C599C1814711E6B7C700401D
:1013140023A6E7208280B386F50003C80600B3063F
:10132400F500850723800601E317F6FEC5B737C726
:1013340000408327C720232607200F10000019C16F
:1013440091C111E637C700402326F720828091051A
:1013540003A7C5FF11057D16232EE5FEDDB737C7AC
:1013640000408327C720232607200F10000001C553
:101374003307C50011E637C700402326F7208280D3
:101384000505A30FB5FEE31DE5FEF5B7B7C700409D
:1013940083A6C72023A607200F1000008147330728
:1013A400F5000307070019E737C700402326D720B5
:1013B4003E8582808507E5B7011126CA4AC8B7C7AA
:1013C400004006CE22CC83A4C7202A892E8623A6D9
:1013D40007200F100000131506019305F004418146
:1013E40032C6EF0090222A8401C53246CA851937D5
:1013F4002285F2406244B7C7004023A697204249A1
:10140400D24405618280B7C7004003A7C72023A642
:1014140007200F10000001C599C1814711EAB7C721
:10142400004023A6E720054582808507E309F6FEF0
:101434003308F500B386F5000348080083C60600A8
:10144400E305D8FEB7C7004023A6E7200145828004
:10145400B7C7004003A7C72023A607200F1000002A
:101464009307F6FFBE952A966317C500B7C70040D9
:1014740023A6E7208280FD1583C715000505A30F69
:10148400F5FEDDB737C700408327C7202326072092
:101494000F10000001C53307C50019E637C7004027
:1014A4002326F7200145828005058346F5FFE3974F
:1014B400B6FEE31BE5FE37C700402326F7200545AB
:1014C40082807971973700009387478122D48043C3
:1014D40006D626D24AD04ECE52CC56CA5AC85EC67A
:1014E40079C0B7C4C901014B972900009389897E4B
:1014F4009384F437172A0000130A8A7E972A00007F
:10150400938A0A7917390000130909828357240042
:1015140095E35C44631D0B00172700002320F77C30
:10152400832BC4002285EF00301D5E84B9A82326D6
:10153400FB00FDB783A7090082971C443307F540DD
:101544006376F500032749001D8F2A9763E2E408B8
:101554009727000023A6077483552400034504003D
:10156400972000E0E780402E5C405844A1CB0C4417
:1015740003264900AE97BE8663E4B70063E4C70060
:10158400B386C74014C4228B3A8449F097270000DD
:10159400938707709C4B05476372F706FD1717275F
:1015A4000000232FF76EB250225492540259F2498C
:1015B400624AD24A424BB24B4561828063170B00A8
:1015C4009727000023ACE770A1BF2326EB0089BF57
:1015D40003274A0209CF63EFA7003385A74083A7F7
:1015E4000A016376F5009727000023ABA76A228BD4
:1015F400404461BF03274900BA97C5B79727000045
:1016040023A0076A4DB797270000938767719C430F
:1016140085C3411106C682979727000083C7676B6D
:1016240089E79727000023AD076EB240410182800D
:101634009727000083C7E76991E79727000023A154
:10164400076E82808280411122C417240000130493
:10165400E4661C4006C626C24AC091C782979727F3
:10166400000023AD07645C4091C382971C40639CD7
:10167400071C173700000347178595479734000068
:10168400938404846301F71C9727000083C7876A47
:101694008DE383C75400858B89CF83C774001947B2
:1016A400631CF70E97370000A38E078099265C44CD
:1016B40082971C4491C38297172900001309C961BA
:1016C40003270900172600000346965C97270000AD
:1016D40083C7075C93961700BA9683D60600E9CAB7
:1016E4009727000083C7C75A63EEC70C97270000EB
:1016F4002380075A1C406398071483C77400154756
:101704006303F7149727000083C7177C91CF83C71F
:10171400740093F7F70F89EB97270000A386077AE5
:10172400970001E0E780E07D972700009387875AC0
:101734009C43638A0710972700009387E75EDC4386
:1017440017270000232EF754AD3B972700009387FB
:101754002759DC53EDCB83C7740015476365F70E37
:101764009727000083C7877A918BF1EF97270000B2
:1017740083C72756E9EB032609009726000083C692
:10178400365163C8D70C2244B24092440249410105
:10179400172300E06700836183C774001D47E31AC1
:1017A400F7F097270000A38F0770A1241C4809B7FE
:1017B400850793F7F70F97260000238BF64CE3E792
:1017C400C7F039BF86073E978355070023100700EB
:1017D40097270000239E074E972700009387C74D45
:1017E4009C43172500000345A54A13172500BA9703
:1017F4009C4382979727000083D7874D17270000C3
:101804000347074993C7F7FF7D8D931717000327F5
:1018140009003E97835707005D8D2310A700972783
:10182400000083C7E74691C78507172700002301F7
:10183400F746172700000347A7459727000083C7EB
:101844003745E375F7EAB240224492440249410124
:101854008280139717003297035707006DF78507A7
:101864000DB737C700408326C720B707FCFFFD1715
:10187400F58F2326F7200F10000097270000938789
:101884002741C84F832787262326D7206A0593C775
:10189400F7FF99835D8D828001119727000093875C
:1018A400677222CC03A4870B26CA06CE2AC42EC68E
:1018B400854419E40145F2406244D24405618280C2
:1018C4008347910003471400858B6304F7000044A9
:1018D400CDB719469305A100130524002D36E3184E
:1018E40095FE0545C9BF172700001307A75C1443DD
:1018F400411122C49C5E4AC006C6998326C2858BC8
:101904003A84172900001309A95AD1CB930700067A
:101914009CDE172700000347075B93070008972402
:1019240000009384E459631BF700832709009C4358
:1019340093F70704172700002307F75883C7040009
:1019440093F707049DC3972700009387A7389C4308
:1019540082979727000023ADA75683C7040093F707
:10196400F70B17270000230DF75483C7440093F7A0
:10197400070495E7854717270000A305F754972721
:1019840000009387A7559C433707020098C71307A5
:1019940000FC972600002387E652D844F8D3184069
:1019A4001C5F9183858B8DC31C5F93E707011CDF4C
:1019B40097270000938787529C4323A207068547F5
:1019C400172700002300F75083270900D843058315
:1019D400058B19C7D843759BD8C3D843799BD8C303
:1019E400B24022449244024941018280ED3D730099
:1019F4002030972700009387674E94439727000071
:101A04009387074C03C70700058B11CB972700006A
:101A1400238A074A97270000A386074A828003C7C0
:101A24001700058B65F7F85271FF83C75700DDB7C0
:101A34001727000013070748032807008327880394
:101A44009583858BADEF11C683270803BD832300DF
:101A5400F6009DC61C43985B46079357670163567F
:101A6400070093E707C0C207C18303970600C207B4
:101A7400C18709C7BA970947B3C7E7022390F6009D
:101A84008DCD8345150095C99727000083C7A743CB
:101A940093F7070413879500894585C33A958347CF
:101AA40005000547994593F6F7066398E600E207B3
:101AB400E187814563D30700B9452E85828085453A
:101AC400EDBF411122C406C61724000013040441CB
:101AD400184049E9AE877453FDFE3E85B2859727C9
:101AE40000002380073E970001E0E78060289727E5
:101AF40000009387273C9C43B70680009843558F8A
:101B040098C3D857719BD8D797270000A38C073A5E
:101B140097270000A386073A1C40094798C3B7F7E4
:101B240000E003A707D16D9B23A8E7D003A707D143
:101B34005D9B23A8E7D073005010144017270000C2
:101B44001307073883472700858B89EB83473700C2
:101B5400858BC1C39727000023860736B2402244F1
:101B6400410182808D476310F50297270000938717
:101B740067349C43B70680009843558F98C3D85761
:101B8400719BD8D75DBF8547E319F5FA5447817730
:101B9400FD17F58F5CC70F1000001840B70702004F
:101BA4001CC7930700F817260000230DF63097276B
:101BB4000000938727309C439C439D83858B6397C8
:101BC400A700930760197CD354C785BF9307E01B14
:101BD400DDBFFC52A5FB59B7411122C417240000F4
:101BE4001304C42F1C4006C6D8479316D70063D6E7
:101BF400060298479316D70063D106027D57B8D7DB
:101C0400172700001307C708584F05079726000039
:101C140023AEE6083707040098C798470D83058B61
:101C24001DC3172700000347C7291367170097260A
:101C340000002388E628130700F897260000238372
:101C4400E628214798C79847058B09CF1727000036
:101C5400034717271367170097260000A382E62679
:101C6400054798C798470983058B09E79847058373
:101C7400058B31C317270000A3060724984797262E
:101C840000009386E6230983058B6302071003C7CC
:101C9400060013671700972600002383E6221147E6
:101CA40098C7172700001307E7201443D856719BE1
:101CB40013671700D8D698479316F70063D6060221
:101CC4009726000083C64637C18A172700001307EA
:101CD400672FE1CA034747071367070297260000E7
:101CE400238CE634416798C798479316E70063D27C
:101CF4000602172700000347E71C62076187635742
:101D04000700054797260000238EE61A37070200CE
:101D140098C798479316C70063D706029726000012
:101D240083C69631858A172700001307A729C1CADD
:101D3400034757071367270097260000A38EE62E54
:101D44003707080098C798479316B70063DD060263
:101D54003707100098C79727000083C7A7FD85C7DA
:101D640017270000034737169547630EF700972798
:101D74000000938767139C4391C382971840B70769
:101D84001F00BD075CC7B24022444101828003C7E3
:101D940036001367170097260000A384E61209474C
:101DA40001B7834647070946BD8A6388C6000347CF
:101DB40047078D463D8BE317D7F2114705B7834696
:101DC4005707918AB5DE0347570713678700ADB7F6
:101DD400972700009387871098438967938707F4B0
:101DE4007CD3972700009387A7149C4383A60709F5
:101DF400139656006358060083A6070913966600D7
:101E0400634406007453FDF28280411122C4B7C7B3
:101E1400004006C603A4C72023A607200F10000015
:101E240011C199E5B7C7004023A6872001457DA8C5
:101E340093073500C207C183F19BC207C18313070F
:101E440040036369F70217270000130727170843A5
:101E5400172700001307071614436392A6021727D7
:101E640000001307E7E7185B55DFC207DD8D054562
:101E740002974DBF1727000013070714C9BF035764
:101E840065002DEB035745006366F706B306F7407C
:101E94002146637CD60203280500938687001D8FA4
:101EA400AA966117172600000356E6DE2392E60081
:101EB40023A006012393060014C12312F50013077F
:101EC40086FF972600002398E6DC2313B5009725A8
:101ED400000083D545DCB387F54017270000231C99
:101EE400F7DAB7C7004023A687202105B240224471
:101EF40041018280084195B7B7C7004003A8C720B5
:101F040023A607200F10000001E523A607218280E5
:101F1400972700009387870A03AE070097270000DE
:101F24009387470903A307008146F28763F0670C90
:101F340083A80700636FF50A63EDA80A1387870077
:101F44006366E50A03D66700216705076317E600A1
:101F540003C7418D0507238AE18C972500009385EB
:101F640025D303D6470003D7650023930700329790
:101F74004207418317250000231FE5D0638AC70366
:101F8400172500001305450308416303F50203D533
:101F9400660019ED83D7460023A0160121073E965B
:101FA40021062392C600972700002396E7CEB68722
:101FB4009843630D6702972600009386E6FF9442D8
:101FC4006306D7028356670095E283D6470003561B
:101FD40047001843A106B2962392D70098C383D72B
:101FE4006500A107172700002317F7CAB7C70040E9
:101FF40029BFBE86C6871DBF01119727000093879E
:1020040067FC22CC03A4070C26CA4AC84EC606CED7
:10201400AA8413092500854915C083C71400034702
:102024003400858B6304F700405CFDB719469305C3
:1020340044004A85EFF02FBDE31835FF2285F240B6
:102044006244D2444249B2490561828041119727D2
:102054000000938727F722C403A4070C26C24AC0B2
:1020640006C693042500054901E82285B2402244AE
:102074009244024941018280A6851305A40297B0C7
:1020840001E0E78040E8E30225FF405CF1BF411135
:1020940097270000938707F322C403A4070C26C2E2
:1020A4004AC006C693042500054901E82285B240CA
:1020B40022449244024941018280A6851305A40169
:1020C40097B001E0E78020E4E30225FF405CF1BF24
:1020D400197106C212C416C61AC81ECA22CC26CE4C
:1020E4002AD02ED232D436D63AD83EDA42DC46DE74
:1020F400CAC0CEC2D2C4D6C6DAC8DECAE2CCE6CEE4
:10210400EAD0EED2F2D4F6D6FAD8FEDA93858183F9
:102114008841E700050092402242B2424243D24342
:102124006244F244025592552256B2564257D2574F
:102134006258F25806499649264AB64A464BD64B47
:10214400664CF64C065D965D265EB65E465FD65FCF
:102154000961730020300000EFF0EFCA7300000043
:1021640000000000972200009382A2B603830200BD
:1021740023800200630F0300F32510342EC097055B
:1021840000009385A5FD73901534EFF0FFA4730050
:10219400203086DCEFF05FA4E6508280000000006F
:1021A400971100209381419017410020130141654C
:1021B4001305400097E5FF1F938585E4170600206B
:1021C400130606FE63FAC5008322050023A055000A
:1021D40011059105E3EAC5FE17C50100130545BEC7
:1021E400970500209385C5FB1386818363FAC50098
:1021F4008322050023A0550011059105E3EAC5FEDD
:102204001385818397250020938505EE6377B500B8
:10221400232005001105E36DB5FEFD42739002BC59
:102224008D4273904280930280087390023097E24B
:10223400FF1F9382E2DC93E23200739052309712D4
:1022440000009382E20E73901234730020302A83CC
:1022540009CA83830500230073007D1605038505E1
:102264006DFA8280B717004083C5870503C89705B8
:1022740003C7970593F5F50F1378F80F13678700D5
:10228400A38CE70403C797051377B70FA38CE70460
:1022940003C7A70513671700238DE704371700400A
:1022A4008347A705858BEDFF0565C14637170040B9
:1022B4009308F5FF0346A70513661600230DC7040C
:1022C4000346A705058A6DFE0356C705FD16C2061B
:1022D4001346F6FF33761601C182B297E1FEA107D9
:1022E4009183130505801D8DA30C07054205230C5E
:1022F400B70441858280B717004003C77705137779
:10230400E70FA38BE7043947238CE7040D47A38C1D
:10231400E70403C7A7051377D70F238DE70482804B
:10232400371700408347A70593E71700230DF704E9
:102334008347A705858BEDFF0355C70552055181DA
:102344008280B717004003C7E7040D894111137752
:10235400C70F498F93068008F3B6068093F6860864
:1023640036C601000100930670052380D704930646
:1023740080FA2380D704010001002387E704238027
:102384000704B247F3A707800100010041018280DE
:1023940041112A830148930E407E130F0019930FB5
:1023A40040069318030193D8080163EF1E01130339
:1023B4000019337365028542FD4363F0B20A8D4F01
:1023C400214F930E400689A87D13336EE3039308CF
:1023D400E016630E0E00336EF3039308D016630801
:1023E4000E009378330093B818009388D816C298D7
:1023F40013980801135808016DB793F81500138E4C
:10240400F5FF6371BF04F908C29813980801931586
:102414000E0113580801C181E391F5FF8545630B53
:102424000300B378D50381456386080093753500AE
:1024340093B51500F105C2951398050113580801C9
:102444008945D9BFB3881341C298139808019315DD
:102454000E0113580801C1818DB77D163298794653
:102464003307C70213D61700BE07420813580801E2
:1024740032976146B3F6C60213068070B386C6026D
:102484003697A166F58F4207D98FB716004003C768
:10249400F60213770708A303E1000346710003C79C
:1024A400F60213770708E314E6FE03477100B71634
:1024B40000405DCF130780087337078013778708C0
:1024C4003AC4010001003717004093067005230049
:1024D400D704930680FA2300D70401000100232ABD
:1024E40007038346170393E60608A308D7022300CD
:1024F400070422477327078001000100116637177C
:1025040000407D16545B4C5FAD8EF18EE5FE930664
:102514008008F3B6068093F6860836C601000100EB
:10252400930670052300D704930680FA2300D7048A
:10253400010001005CDB8347170393E70704A3084A
:10254400F70223000704B247F3A707800100010044
:102554004101828003C7F60213770708A303E10051
:102564000346710003C7F60213770708E314E6FE77
:102574000347710065D33DBF4111B7170040985F11
:102584003AC6945F3247E39CE6FE324541018280BD
:10259400914763EAB70897B701009387A71E8A0596
:1025A400BE9598413E97B71700409387470B028723
:1025B40094431345F5FF37170040E98E94C39306FF
:1025C400070B9C42E98F9CC29307070A9843798DB5
:1025D40088C3828090439346F5FF37170040758E79
:1025E40090C31306070B1C42C98F1CC29307070A2A
:1025F4009843F98E94C38280944337170040C98E60
:1026040094C39306070B9C421345F5FF65BF94439F
:102614001347F5FF758F98C3B71700409387070AD0
:102624009843498F98C382809843498FEDB7914767
:1026340063EAB70897B70100938707168A05BE9522
:1026440098413E97B71700409387470D02879443FC
:102654001345F5FF37170040E98E94C39306070D21
:102664009C42E98F9CC29307070C9843798D88C3D9
:10267400828090439346F5FF37170040758E90C3D0
:102684001306070D1C42C98F1CC29307070C9843FD
:10269400F98E94C38280944337170040C98E94C343
:1026A4009306070D9C421345F5FF65BF94431347FA
:1026B400F5FF758F98C3B71700409387070C9843AD
:1026C400498F98C382809843498FEDB79357E500AB
:1026D40093F70730C98FC2070947C183638BE504A9
:1026E4006362B70213C6F7FF9DE9371700408356AC
:1026F4006709F18E231BD7081307C70C1443C98E2F
:1027040014C321A00D47638CE50237170040231F33
:10271400F70883562709D58F2319F70882803717BE
:10272400004083566709F18E231BD7081307870CD3
:10273400F1B73717004083566709DD8E65BF371739
:10274400004083566709DD8EC5B73757004083576D
:10275400078011C593E707102310F7808280C20712
:10276400C18393F7F7EFC207C183FDB73757004022
:102774008357078011C593E707202310F7808280D1
:10278400C207C18393F7F7DFC207C183FDB7375789
:1027940000408357078011C593E707402310F78053
:1027A4008280C207C18393F7F7BFC207C183FDB715
:1027B40037570040835747804205418189C5C98FF7
:1027C4002312F78082801345F5FFE98FD5BFB757F1
:1027D40000402398A7808280B757004003D5078123
:1027E4001375F50F8280375700408357078011C552
:1027F400A166D58F2310F7808280C607C583DDBF0D
:10280400011126CAB754004052C43E8A83D70480BB
:102814004EC6BA892167D98F06CE22CC4AC856C281
:102824005AC02390F4802A8901452E84328BB68ABB
:102834005D3FB52E37480F001308082433580503AD
:1028440083D74480C207C18393F707FCC207C183BF
:102854002392F48083D74480B3E70701C207C1837E
:102864002392F48083D70480C207C183F99BC207F3
:10287400C1832390F480E1679387076A63E4870A3E
:1028840006043354850285671387C7FF1146420443
:102894004180618F01C7FD173376F4000508930763
:1028A400F00363F407011308F0034208B75700402C
:1028B4001358080123900783B7550040239EC58011
:1028C40083D70580F240624493E717002390F58094
:1028D40083D70580D244024BC207C18393F757BF05
:1028E400C207C1832390F58003D505803365550164
:1028F40033652501420541812390A58083D78580D6
:102904002394058083D685804249924AB3E74601E1
:1029140033E73701420741832394E580B249224AD1
:1029240005618280631A0B028D45B305B402B35569
:10293400B502D205D1812E8691E105464206418237
:10294400A1675D8E9307C0123308F8029307803E97
:102954003358F802050891BFE5473304F402916740
:1029640033568502520651825D8ED9BFB757004057
:1029740003D7478103D587814205598D22052181DB
:1029840082801345F5FF42054181B7570040239AE1
:10299400A7808280797122D43714004026D24AD08D
:1029A400035924028354040206D64209C2044ECEBB
:1029B40052CC56CA13590901C1802DE11379F9F794
:1029C40093F4F49F4209C20413590901C180930787
:1029D4008008F3B7078093F787083EC4010001001D
:1029E400930770052300F404930780FA2300F4048A
:1029F4000100010023112403231094022300040482
:102A0400A247F3A7078001000100B2502254925458
:102A14000259F249624AD24A45618280B7F50700F9
:102A240081463000B105194597E0FF1FE780E05566
:102A340022478967F98FF1FB1369090893E404407D
:102A440093098008F3B7098093F787083EC0010013
:102A54000100930A700523005405130A80FA230029
:102A640044050100010023112403231094022300D0
:102A740004048247F3A7078001000100294597E079
:102A8400FF1FE780E0D6F3B9098093F989084EC2A5
:102A94000100010023005405230044050100010046
:102AA4008357040293E707202310F402230004044D
:102AB400924781BF411131E593078008F3B707803E
:102AC40093F787083EC001000100B71700401307C1
:102AD40070052380E704130780FA2380E7040100CC
:102AE400010003C7E70093C5F5FF6D8F2387E70057
:102AF400238007048247F3A70780010001004101F6
:102B0400828013078008F337078093F787083EC253
:102B140001000100B7170040130870052380070562
:102B2400130580FA2380A7040100010083C6E7008F
:102B3400CD8E93E606042387D700238007049246AC
:102B4400F3A6068001000100F336078093F6860899
:102B540036C401000100238007052380A704010077
:102B6400010083C6F70093F6C60FA387D70023801E
:102B74000704A246F3A6068001000100733707800C
:102B8400137787083AC601000100238007052380D4
:102B9400A7040100010003C7F7007D163336C00007
:102BA400518FA387E70023800704B247A9B7B7175B
:102BB400004098479317070113770704C18309EB73
:102BC400FD8B3755E801130505803345F5028280F6
:102BD40013F7070C930600046316D700FD8B3745E3
:102BE4009C1CD5B72165130505D0828037E700E02A
:102BF4001C435443A183E206D58F1CC1FD572320F7
:102C0400F7182322F718828013178500B7E700E02E
:102C140023A0E710618123A2A7108280B7F700E008
:102C24008847CC47828041119397050122C406C688
:102C340026C2C1872E8463DE0700EF00700319C12A
:102C4400EF00A0772165218DB240224492444101D6
:102C5400828093F7150013C51500FDF7916433F5D1
:102C640095007DD113060064916503C5C183EF000F
:102C74001054258C131504014181F9B71D7149467F
:102C840097B50100938585B217B50100130505D1E9
:102C940086CEA2CC97E0FF1FE780E07611E101A089
:102CA40037F700E0795610CBFD5654CBB7E700E078
:102CB400056423A087109306F00214C323A0871889
:102CC4000100010017F7FF1F1307C74923ACE18276
:102CD4004157A38AE7401306C0038145480897E09B
:102CE400FF1FE780C06797F7FF1F938727753ECACA
:102CF400896793870780231CF100ED472312F102B3
:102D04009547A301F10285472303F102930754D1A8
:102D14002314F102B7F5070097070000938747F0E3
:102D24003EDA814697070000938727167000E10575
:102D340019453EDC97E0FF1FE7802025B2473ED6C9
:102D4400835701012318F102D24789C783578101B0
:102D540063F3870001A04808EF10403311C101A0BC
:102D6400F640664425618280411117050000130571
:102D7400C5EB06C6EF10C02D238EA182B120B24050
:102D8400410179A2411193078008F3B7078093F7B3
:102D940087083EC601000100B717004013077005FD
:102DA4002380E704130780FA2380E704010001006D
:102DB400C8DB23800704B247F3A7078001000100A2
:102DC40023A0018441018280797106D6130780080B
:102DD400F337078093F787083EC401000100B71753
:102DE4000040930570052380B704130680FA2380FE
:102DF400C7040100010083C6F70293F6D60FA38728
:102E0400D70223800704A246F3A60680010001002E
:102E140073370780137787083AC6010001002380BF
:102E2400B7042380C7040100010003C7F702136736
:102E34005700A387E70223800704B247F3A707805C
:102E44000100010081470147814605468545130578
:102E5400407EEFF0EFD308084146814597E0FF1F1D
:102E6400E780E04FB707C0A83ECAB78732003ECC20
:102E7400080897E7FF1F938707A03EC8EF10A04EEE
:102E8400B25045618280011122CC06CE93074003E3
:102E94001304C5FC63E7A7003704C0A81304C4FCEB
:102EA4002A946800A133EFF02FEDB307A4406376B2
:102EB400A400B707C0A8A297898F3747F6A69387BF
:102EC400F7FD1307F7C5637AF700324509442D3B34
:102ED400F24022856244056182802285653532454F
:102EE400253303A401841DE01165690597D0FF1FF4
:102EF400E78040300545EFF0CFC4EFF0EFE72AC498
:102F0400EFF08FE7A247E30DF5FED9B70D44C9B73B
:102F1400411113078008F337078093F787083EC4ED
:102F240001000100B7170040930570052380B70422
:102F3400130680FA2380C7040100010083C6E7005A
:102F440093E686002387D70023800704A246F3A6CE
:102F540006800100010073370780137787083AC69B
:102F6400010001002380B7042380C704010001008D
:102F740003C7170313670702A388E7022380070424
:102F8400B247F3A7078001000100B7E700E0370765
:102F9400001023A0E71041018280238901840547A2
:102FA4002388E184A3870184B72506004111AA87F9
:102FB4001167930600401166938505A8014506C66E
:102FC400EFF01F84854513050040EFF06FFE854543
:102FD40013050020EFF0CFFD854513050010EFF039
:102FE4002FFDB240B7E700E03707004023A0E71009
:102FF40041018280011126CA06CEB68422CC4AC879
:103004004EC69306000263E0C60C83C621852A845B
:1030140013892185795599E209EA0145F240624410
:10302400D2444249B2490561828089462300D900CD
:103034002388E1842384018413854197A386C18472
:1030440023870184EFF0AFA0A388018483C711858F
:103054000604C18F0145A388F184EFF02FF103C763
:10306400F184854793891185631BF704A387018441
:103074003754004003C50900EFF06FF5835704800F
:10308400918BEDFB854513050040EFF06FF285450C
:1030940013050020EFF0CFF1854513050010EFF084
:1030A4002FF191C4894703470900E30EF7FE83C754
:1030B4008184A5D703C581843305A04085B7054520
:1030C400EFF0AFE8F9BF7D5591BF9307000263E1CC
:1030D400C710011152C406CE22CC26CA4AC84EC615
:1030E40056C25AC083C721852A88138A21857955F7
:1030F400CDEF3284014555CA854A23005A012388FD
:10310400D18423840184238701841389118593073F
:10311400F6FF23005901BA84A386F184834709008A
:103124000608AE89B3E7070193F7F70F2300F90008
:10313400EFF0CFE383C7F18463935709A387018436
:10314400B75A004003450900EFF06FE883D70A80BF
:10315400918BEDFB854513050040EFF06FE5854548
:1031640013050020EFF0CFE4854513050010EFF0C0
:103174002FE40149854A7D5B83470A00639C57011C
:10318400054597D0FF1FE78080670509E38664FF44
:10319400E34499FE83C7E18463E78702228693852B
:1031A40041974E85EFF0AF8A2285F2406244D244C3
:1031B4004249B249224A924A024B0561828005453E
:1031C400EFF0AFD87DB703C4E1841374F40FF9B7FB
:1031D4007D558280828041119397050122C406C6E1
:1031E400C1872E8463DD070003C54185512411C1C5
:1031F400E9222165218DB24022444101828093F766
:10320400150091CB17F5FF1F1305450AEF30E113A5
:1032140013451400CDB793F725008DCB2166130613
:1032240006D0894503C54185EF00607897E0FF1F0C
:10323400E780E0BE97F6FF1F938686F679468545BC
:103244000145EF40F0091345240075B793F70501D4
:1032540099CF97E0FF1FE78040B013060064A145B3
:1032640003C54185EF00A0741345040169B713F544
:10327400850051D11385818597E0FF1FE780E0B277
:103284003166130606B8C14503C541850D271345AC
:10329400840095B7011117050000130505F406CE47
:1032A40022CC26CAEF00D05A1384418585472300D7
:1032B400A4002307F1001306E1008D47854513059B
:1032C4005030A307F100EF40B1551306F1008545D6
:1032D40013058030EF40D15417F6FF1F130646EC58
:1032E400F94513056030EF40B1538564938504C8F4
:1032F4000D45EF20F021938504C81145EF2050219E
:1033040003450400138604C8854555250345040078
:103314001386047C8945612D034504006244F24010
:10332400D24413060064C145056151A54111054508
:1033340006C6EFF02FE61305800497D0FF1FE78041
:10334400402385457D55EFF0AFA485457D55EFF0CD
:103354000FAE81450565EFF08FADB717004083A729
:10336400470C05678945F98F91E38D450565EFF0B5
:10337400EFB5B7E700E03707040023A0E7104146A4
:10338400C1450545EFF00FF3EFF05F8FF13AEF40E1
:10339400117B093797E0FF1FE78020AE23AC05FEC1
:1033A4001C4191E7010001000CC18280BA8703A788
:1033B40087FF6DFF23ACB7FE8280411122C426C271
:1033C40037C4004006C68324C420232604200F10DB
:1033D400000009E9232694201545B2402244924472
:1033E400410182800347E5FF9307F00F6306F7006E
:1033F400232694201145D5B797F0FF1FE780C0AF6F
:10340400014523269420D1BF411126C24AC0B7C426
:10341400004006C622C403A9C42023A604200F101A
:10342400000009E923A62421B2402244924402491F
:10343400410182809565938505D0C98D2A84210533
:10344400C2054205C181418197F0FF1FE780E09BDF
:1034540001CDFD5723200500231285002303F50029
:1034640023A624212105C9B723A6242101456DBF24
:10347400411126C2B7C7004006C622C483A4C72090
:1034840023A607200F100000970700209387C77F0B
:10349400904301440147B28791E711E8A165EF0029
:1034A400007A35A083C6E7FF639DA60221C0832668
:1034B40084FF631FC402170700202327D77C7D578E
:1034C400232C04FE230FE4FEF1DBA165952E228557
:1034D400B2402244B7C7004023A69720924441013A
:1034E400828011E03E8783A787FF7DB73E84E5BFD6
:1034F400232CD7FEE9B7411126C24AC0B7C4004005
:1035040006C622C403A9C42023A604200F10000069
:1035140089E523A62421154515A02A8497070020B0
:1035240083C7D7762E856375F400894763EE8700D9
:103534006935B7C7004023A627210D45B240224470
:10354400924402494101828083A785FF99E703C71A
:10355400E5FF9307F00F6308F7008535B7C7004010
:1035640023A627214DBF238F85FE170500201305B1
:10357400A5712D35A1652285E124014523A62421C9
:1035840075BF9707002023A107708280970700204A
:10359400938787749C4399E33E85828003D72700F1
:1035A4006316B70003C70700E308A7FEDC47E5B7C7
:1035B400C9C1797122D406D626D24AD04ECE01444E
:1035C4004147B3D78540858BA5C312053147229562
:1035D4003305E502970700209387077403A90700C2
:1035E4008544B3948400C204C180BE892A99032708
:1035F400090011C7032549002EC60297B245314779
:103604003304E40283A709003E941C4489E7232081
:10361400090023220900B2502254A58D0259925464
:10362400F2492E85456182800504E31CE4F8814457
:10363400DDB72E85828041111397050122C406C689
:1036440026C24AC041872E84635E0700153511C126
:10365400AD33A1673D8C2285B24022449244024995
:1036640041018280EDD9AA8701474146B356E4401F
:10367400858A8DCE9207BA97B146B387D70297064B
:1036840000209386666903A906008544B394E40088
:10369400C204C1803E99832709000325490082970B
:1036A4002320090023220900258C75B70507E31F91
:1036B400C7FA8144D5BF411126C2B7C7004006C628
:1036C40022C483A4C72023A607200F100000970755
:1036D40000209387A7609C531384C18099C7829765
:1036E4001C403E9523A6A18039A09707002093870C
:1036F400275E9C43EDF71C40374703001307D73F71
:10370400B387E70237A72600130737ECB240BA970E
:1037140023A6F180B7C7004023A69720084022447F
:10372400924441018280797126D2B7C7004006D6FF
:1037340022D44AD04ECE52CC56CA5AC85EC662C4AF
:1037440083A4C72023A607200F10000005E123A6A9
:1037540097200945B250225492540259F249624AC0
:10376400D24A424BB24B224C4561828097070020DB
:10377400938707569C43BA8A368AB28B2E8BAA89C2
:103784008297970700209387275998433E890144DD
:10379400B146C147330CD40233068701104241EAD3
:1037A400C165938505F0414597E0FF1FE780E0651B
:1037B40005E197070020938767529C5B81C7814589
:1037C40011458297B7C7004023A697202D4559B7C6
:1037D4009707002093874750984331E797070020C5
:1037E40023ACA74E230005008327090005473317A0
:1037F400870023260500232475012311E5002322D5
:103804005501E29723A0370123A2670123A457019E
:1038140063040A0023008A00B7C7004023A6972048
:1038240001450DBF3E875C47F5FF48C765BF0504EA
:10383400E312F4F6B7C7004023A69720214519BF29
:10384400B7C7004083A6C72023A607200F10000097
:1038540017070020034797436373E5021706002008
:10386400130646471317150008423A9503570500F7
:10387400D98D2310B50023A6D7200145828023A625
:10388400D7200D458280B7C7004083A6C72023A652
:1038940007200F100000170700200347373F637508
:1038A400E502170600201306E64213171500084226
:1038B40093C5F5FF3A9503570500F98D2310B5001C
:1038C40023A6D7200145828023A6D7200D458280D8
:1038D400011126CA37C7004006CE22CC4AC84EC6BC
:1038E40052C48324C720232607200F100000130787
:1038F40005FF1377F70FFD4763E5E70AB146B30603
:10390400D5029707002093872741984336971C4395
:10391400C9CB135A450005443D893315A40013143B
:10392400050141802E895285A2858D31AA8929CD30
:10393400A2855285893F97070020938767399C4366
:1039440082979707002083D7673E338727032A840B
:10395400814613060064B3B7270313050732B33552
:10396400E500BE95EF90D126B307850097060020A9
:103974009386463B3E87D44263E4A70063E4D700C2
:103984003387D74023A4E900B7C7004023A6972074
:103994000145F2406244D2444249B249224A056197
:1039A4008280B7C7004023A697200945DDB7797107
:1039B40026D24ECEB7C4004006D622D44AD052CC2A
:1039C40056CA5AC85EC683A9C42023A604200F1071
:1039D40000009707002083C7772B637AF5009707C9
:1039E40000209387E72E83AB070063970B00B7C7CC
:1039F400004023A63721A9A0170B0020130B8B32FC
:103A0400832A4B00B74736FE938707C82E8A97054B
:103A1400002083D5A531BE9AB387C5022A84328992
:103A24008146B3B5C50213850732B337F5001306D3
:103A34000064BE95EF90D11963F0AA0223A6342145
:103A44000145B250225492540259F249624AD24A70
:103A5400424BB24B45618280829B9705002083D5FF
:103A6400E52CB3872503AA84130600648146B3B505
:103A7400250313850732B337F500BE95EF90511532
:103A8400B3079500BE8403274B0063E4A70063E4F7
:103A9400E700B384E740D2852285CD3C01C904C543
:103AA400B7C7004023A63721054561BF936504F0DD
:103AB400C205C181414597E0FF1FE780003519E940
:103AC40097070020938787219C5B95D3A285114596
:103AD400829731BF97070020938707209C439DE37B
:103AE4009707002023AAA71E85472326050004C59F
:103AF4002311450123008500A300F50023220500BE
:103B040045B7BA87D84775FFC8C7F9BF79714ECE94
:103B1400B7C7004006D622D426D24AD052CC56CAC1
:103B24005AC85EC662C466C26AC083A9C72023A6F7
:103B340007200F10000035C141443689B28A2E8A0D
:103B4400AA84B14C170B0020130B0B1D054D130C4D
:103B54000003B30B940303270B005E971C43B9EFD8
:103B64009375F400B315BD0013554440C205568641
:103B7400C1811375F50F253D31C183270B00DE97F5
:103B840084C323A247016304090023008900B7C743
:103B9400004023A63721014521A023A6372109454A
:103BA400B250225492540259F249624AD24A424BC8
:103BB400B24B224C924C024D456182800504E31ABB
:103BC40084F9B7C7004023A637212145D1BF01118D
:103BD40022CC26CA4AC84EC6B7C7004006CE03A99F
:103BE400C7202A84AE89B28423A607200F100000C0
:103BF4007D3B2285CE85593A2A8405C59705002048
:103C040083D5C512B3879502130600648146B3B504
:103C1400950213850732B337F500BE95EF90417BCB
:103C240048C013351400F2406244B7C7004023A6CD
:103C34002721D2444249B2490E050561828001110F
:103C440022CC4AC84EC6B7C7004006CE26CA83A9AE
:103C5400C7202A892E8423A607200F100000EFF026
:103C6400FF92AA8419C123110500A2854A8521392E
:103C74009707002083C78701639B270197070020CC
:103C840083D7C7045D8C9707002023918704B7C7A7
:103C9400004023A63721014591E01945F2406244D2
:103CA400D2444249B24905618280011126CA4AC8F8
:103CB400B7C4004006CE22CC4EC603A9C42023A616
:103CC40004200F1000009307F00263E8A704B14733
:103CD4003304F502970900209389090483A7090096
:103CE400A2979C439DCB9377F5008545B395F5004A
:103CF400C205C1811181A13783A709000145A2979B
:103D040023A0070023A2070023A62421F240624433
:103D1400D2444249B24905618280B7C7004023A614
:103D240027210945E5B7411126C206C622C4B7C7F3
:103D3400004083A4C72023A607200F100000EFF043
:103D4400FF8419E90145B2402244B7C7004023A6C5
:103D5400972092444101828097070020938747F778
:103D64009C4300458297970700209387A7FB6368CD
:103D7400A402D843B74636FE938606C83305A4404A
:103D84003697E371E5FC13070064B335E50203D607
:103D9400870081463305E502EF9081636DB7D84310
:103DA4003A94C1BF0111680006CE22CC26CAEFC0E6
:103DB400B008FD57630BF50AB247DDC3970700202F
:103DC400938747F697040020938444EC9448D8439F
:103DD4003E846387E60297070020938767EF9C433E
:103DE4008297B247984863F3E7003E87B307A7007A
:103DF4003E85544063E4E70063E4D7003385D7404D
:103E0400170400201304840B1C4C81CF9707002057
:103E14009387C71194433707CDFF7D179C46F98FCD
:103E24009CC611E5970700209387C7EFC8439707FF
:103E340000209387A7EADC53829719E51C4C8DC3B5
:103E4400EFE01005EFD0305A1C4C99CB97070020B7
:103E54009387C70D9843B70633001C47D58F1CC7FB
:103E6400F2406244D2440561828097040020938426
:103E7400E4E1170400201304E4EA94485840970747
:103E840000209387E7E49C436393E60282975440BF
:103E9400B74736FE938707C8B6973387A7003A8596
:103EA4006364F700E36ED7F43305D74091BF82977C
:103EB40094485840B387A6003E8563E4D700E3E105
:103EC400E7F43385E7402DBF411106C6970700206C
:103ED40023A8A7E40295B2409707002023A4A7DCF7
:103EE400014541018280914763E9B7008A0597073C
:103EF4000020938767DCBE9588C1828097070020E5
:103F040023AEA7E011C58547170700202301F7DC7E
:103F14008280411151468145170500201305C5D9FA
:103F240006C69707002023A907DA9707002023A9CC
:103F340007DE9707002023AD07D8970700202388C2
:103F440007D89707002023AB07DC97D0FF1FE78033
:103F5400004113068002814517050020130505D38F
:103F640097D0FF1FE780A03FEF402147970700202D
:103F740083C717D813D527008D8B3E958D473305FE
:103F8400F502854539051375F50F97070020238041
:103F9400A7D099473305F5021305052497E0FF1FC1
:103FA400E780A0E6170700202328A7D659CD994714
:103FB400170600200346A6CD3306F60281451306F4
:103FC400062497D0FF1FE780803997070020938746
:103FD400A7D49C439387072417070020232CF7CCEE
:103FE400170700200347A7CA0A07BA971707002034
:103FF4002322F7CEEFF0EFD8A92997070020938763
:1040040067CB94439707002083C757C813972700AB
:10401400369717F6FFFF1306E65910C313871700E8
:104024001377F70F0A07369717F6FFFF1306E660B4
:1040340010C313873700890793F7F70F8A0797058B
:104044000020A385E5C4B69790C3B24041018280A5
:104054009707002083C797C317070020034727C388
:1040640063F3E702170700201307C7C418439386B6
:10407400170017060020A30BD6C093962700369787
:1040840008C33E8582809307F00FE5BF1C4163821D
:10409400071441777D8FB70600208947631CD71228
:1040A4000357450063080712411122C419462A84A4
:1040B4009305F00F610506C697D0FF1FE780803C8B
:1040C40005478D476302E5101C4491C7585899472A
:1040D40065CF185C75CB1306C00381451705002016
:1040E4001305C5BF97D0FF1FE78060271306C003E1
:1040F400A28517050020130565BE97D0FF1FE78032
:10410400601F17070020035727BE970700209387D7
:10411400E7BC19E713070010970600202396E6BCB6
:1041240017070020034767BC11E7054797060020DF
:10413400238DE6BA17070020035747BB11E76D47E5
:10414400970600202394E6BA170700200347F7B91F
:1041540011E7154797060020A389E6B81707002042
:104164000347E7B811E70547970600202381E6B81F
:10417400170700200347B7B719E703C7F7009706E7
:104184000020A386E6B617070020034767B611E7A9
:10419400554797060020238DE6B40347640119E7C9
:1041A4001307C003970600202385E6B49C5791C7E4
:1041B400829797070020239FA7ACFD57170700207D
:1041C400A308F7DCB9338147B24022443E8541015C
:1041D400828089473E85828001114EC6970900205E
:1041E400938949B483A7090006CE22CC26CA4AC8BB
:1041F40052C4829713090064B335250303DA890096
:104204008146528633052503EF90811C97070020D1
:104214009387C7A7804FAA84014563069402338518
:104224008440636E940003A5490052868146B335E9
:10423400A9023305A902EF90A119018D26959707CC
:10424400002023A197A6F2406244D2444249B249D5
:10425400224A056182809707002083D747AD5147E2
:104264001D45637CF702794719456378F702130704
:10427400200315456373F7021307B0041145637EE9
:10428400F700130740060D456379F700130760092B
:1042940009456374F70013B5B70F8280011122CC6E
:1042A40006CE2A842EC6EFF00FC1B245F240818DAE
:1042B40033A5A502229562441375F50F056182802A
:1042C400011122CC06CE2A842EC6EFF0CFBEB24511
:1042D400F240818D33A5A5022295624442054181B5
:1042E40005618280011122CC06CE2A842EC6EFF00D
:1042F4008FBCB245F240818D33B5A502229562444C
:1043040005618280970700209387479D985739CB92
:10431400411122C426C206C6BE8402971707002094
:10432400035747972A8415CBBA876373A700AA87D4
:10433400C207C183BA866373E400A286C206C1823F
:10434400958F5147635BF700DC5491C38297EFE08C
:10435400201D97070020239F8792B2402244924455
:104364004101828082809707002083C7679C99C798
:10437400054582800545F24005618280970700204B
:104384009387C795DC57011106CEAA8581C72AC633
:104394008297B245ADCD9C41F1DFDC41E1DF83D7AB
:1043A4008500E9DB83D7A500F1D741461705002036
:1043B4001305459797D0FF1FE780C0F397070020A8
:1043C400938747969C43170700202323F79097076A
:1043D400002083C717928DE79307805717050020A5
:1043E4000355C5943305F50237460F00130606241A
:1043F40081468145EF80D17D97070020A38BA78E4E
:1044040017050000130585DDC1340145ADB79707D5
:10441400002023AB078897D7FF1F9387874417078C
:1044240000202321F7907D579707002023AEE78EC5
:10443400B7873200938727A19706002023A8F68E1A
:10444400970700202386078EB7C7004023A4E726DA
:10445400B5B7011122CC17040020130424880844A2
:1044640006CE26CA4AC801E90545F2406244D24450
:104474004249056182805C58E5DB185C75D77000A1
:10448400854582971844B247E300F7FE9305E0049C
:10449400170500200355458597E0FF1FE780E09648
:1044A400170700202324A78061D117060020035694
:1044B400A6839305F00F97D0FF1FE78040EA81445D
:1044C40017F9FF1F1309897C9707002083C7E78129
:1044D4000326090263C1F402328597E0FF1FE780D7
:1044E400A0A1014597F7FF1F23A2077C97F7FF1FA1
:1044F40023A0077C9DBF97F5FF1F83D5E57EB38777
:1045040095020844185C898185043E9508C2029787
:1045140065BF011156C297FAFF1F938A2A7C83A7AD
:104524008A0022CC4AC84EC606CE26CA52C45AC0F5
:10453400AA892E8432896386072203A74A03630962
:1045440007141307F01F6367A71497F4FF1F9384DE
:10455400E47303AA040263170A0A9565938515E0B8
:1045640017F5FF1F0355457897E0FF1FE780E089A3
:1045740097F7FF1F23ACA7722A86630B051083A746
:104584004A0303A58A0097F5FF1F83D5E575898142
:10459400829783A78A0003AA040217F7FF1F23291F
:1045A400F7708947639CF908C1476313F40E97F5C4
:1045B400FF1F83D56573938505FC9147B3C5F50249
:1045C4008A05D29503C725009307A005631EF70A41
:1045D40083D70500639A370B4A852286910597D0C5
:1045E400FF1FE78020D19C505285639347150145F6
:1045F400F2406244D2444249B249224A924A024BAE
:1046040005618280D850E38EE7F89565938525E0AF
:1046140017F5FF1F0355456D97D0FF1FE780E07E18
:104624002A8A3DC52A8683A74A0303A58A0097F5EB
:10463400FF1F83D5656B89818297A5B78D47639DDD
:10464400F900C1476316F40497F5FF1F83D5C569C4
:10465400938545FDF199B5B79147639AF9006319BC
:10466400340397F5FF1F83D52568A115E5B7930794
:104674000010639FF900A14763EC870097F5FF1FC3
:1046840083D58566C115F9B79C5052856396470D4D
:104694002945B9BF1D6A568B6371450B130A05E0A2
:1046A4001947334AEA0217F7FF1F0357E76397FADC
:1046B400FF1F938AAA5D330AEA023E9A83A74A023D
:1046C4006395470183A40A029DE49305E00417F56A
:1046D400FF1F0355656197D0FF1FE7800073AA840D
:1046E40045D983274B0397F5FF1F83D5E55F2A86BA
:1046F40089815285829791451307A00589819397F3
:104704002500A69783C627006393E60483D6070093
:10471400639C360385058A052286A6954A8597D02B
:10472400FF1FE78020BD83A70A02E38297EC26855A
:1047340097D0FF1FE780407C5DBD21677917E3694F
:10474400A7F4330A454185B783C5370045BF83A71E
:104754000A02E38F97F2268597D0FF1FE780C0797E
:1047640005BF97F7FF1F938767528C5395D19147E5
:104774009306A0058983139727002E9703462700E5
:10478400E318D6F003560700631C360185078A0731
:104794002286BE954A8597D0FF1FE780A0B581BDCC
:1047A40083473700C1BF97F7FF1F93872753984765
:1047B40039C79C5FA9C705476313E504411122C4A7
:1047C40017F4FF1F1304844C105006C60DC648503E
:1047D40097F5FF1F83D5455189818297085097D05B
:1047E400FF1FE780607197F7FF1F23A1074C97F71E
:1047F400FF1F23AF074AB2402244410182808280D6
:10480400011117F7FF1F1307674D4EC68329870051
:1048140022CC26CA4AC806CE52C456C2AA842E84C2
:104824003289638B09201C5FBA8A99EB2945F240CF
:104834006244D2444249B249224A924A0561828082
:104844005C5BEDD79307F01F63EAA70E97F9FF1F90
:104854009389C94383A70902B1CB03A58A0083A71F
:1048640049026395A70689476393F408C147E31F88
:10487400F4FA17F5FF1F035525479147130505FC67
:104884003345F5029317250003A509022286CA853C
:104894003E959307A0052301F5002310950011050B
:1048A40097D0FF1FE78000A5014551B79305E004A9
:1048B40017F5FF1F0355454397D0FF1FE780E054CA
:1048C40097F7FF1F23A4A73E49F98DB783A74A038F
:1048D40003A6090297F5FF1F83D5054189818297B5
:1048E40083A78A0017F7FF1F2324F73CADBF8D472A
:1048F400639EF400C147E31BF4F217F5FF1F035551
:10490400A53E130545FD9377C5FFBDBF9147639A47
:10491400F400E31D94F017F5FF1F0355E53C211542
:10492400DDB793070010E393F4F0A147E3E087F0C9
:1049340017F5FF1F0355453B4115F1B79D67637993
:10494400F506930705E01947B3C7E70217F7FF1FFA
:104954000357873917FAFF1F130A4A33B387E7024D
:10496400BE9983270A02A1CF83274A026399370796
:1049740003250A0291461308A0059305F00F93D767
:104984002600139727002A9703462700631F06076C
:10499400835807000346370063959806B306D6404C
:1049A40063CF860485078A072286CA853E95CDBDD6
:1049B40021677917E36CA7E6B307F54041BF930578
:1049C400E00417F5FF1F0355253297D0FF1FE7803A
:1049D400C04397F7FF1F23ABA72C59F581BD83A7CD
:1049E4004A0303260A0297F5FF1F83D5E52F898121
:1049F4004E85829797F7FF1F23AC372B95BF231063
:104A0400B70093160601C1829DBFB385860017F6D1
:104A1400FF1F0356662D9105130606FCE3F8C5E057
:104A240013063400719A1106B2962301070123106C
:104A34009700A301D700BDB797F7FF1F93870725FA
:104A44009453BE89A9C203A5090291461308A0057F
:104A54009305F00F93D72600139727002A97034650
:104A64002700631806058358070003463700639838
:104A74009800B306D640E3D786F22310B700931606
:104A84000601C182C1BF8357C70017F5FF1F034545
:104A9400C5259305E0043305F5024205418197D00D
:104AA400FF1FE780803697F7FF1F23A1A72041FD52
:104AB400B5BB17F6FF1F0356262397F5FF1F83C5C3
:104AC400C522B385C502338686001106E3E0C5D648
:104AD40081BF01458280011106CE2EC6EF70607C35
:104AE40001C9B245F2400355250005616FB050126B
:104AF400F240494505618280A384018823840188AA
:104B040023A8018623AA018623AC018623AE01864D
:104B140023A6018623A4018697F7FF1F9387872383
:104B2400930640382391D702F1761307400B9386FE
:104B340006B82391E7002392D70211679D46130616
:104B440000059305000A1305007D2392E7002393D3
:104B5400D70241478546130810F82395E7002396AA
:104B6400E7002399E700239AE700239BE700239CAF
:104B7400E7002394E702239007002393B7002394CC
:104B8400B7002397C7002398C700239DA700239E3F
:104B94000700239F0700239007022395D70223963B
:104BA4000703239707029308F00723980702239229
:104BB400E7042393E704239FE7042390E706239164
:104BC400E7062392E706239917031307C01C239AC9
:104BD400D702239BD702239C0702239D0702239E0F
:104BE4000702239F0702239007042391D7042394E9
:104BF4000704239507042396D7042397C70423980F
:104C0400C7042399A704239A0704239B0704239C1E
:104C14000704239DC704239EC7042393A706239454
:104C2400070623950706239607062397B7062398B6
:104C3400B70623990706239AE7065147239DE706FB
:104C44007D57239B0706239C0706239ED706239F95
:104C54000706239007092391E7088280011126CAD9
:104C6400AA84214522CC06CE2E8432C636C43AC24A
:104C7400EFE08FF91DC9A24612473246930700FDA3
:104C84002300F5009947A30095002301F5002303B1
:104C9400D500A303E5002312C500AA85228562443A
:104CA400F240D24405616FE01F85F2406244D24471
:104CB4000561828023A8A186828023AAA18682809E
:104CC40023ACA186828023AEA1868280011122CCEE
:104CD4004AC806CE26CA2A890144B30489006368F7
:104CE400B400F2406244D2444249056182802EC637
:104CF400EFE07F9C93170501C183A183B245238014
:104D0400F4009307140093F7F70F850463F9B700D1
:104D1400CA9709042380A7001374F40F7DBF3E844F
:104D24007DBFC16717F5FF1F03552501FD176304F8
:104D3400F502411117F6FF1F034686159385018876
:104D440006C6EF700034B240FD5717F7FF1F231655
:104D5400F7FE41018280828009C925151375F50F7C
:104D64001335850E134515008280014582802390FA
:104D74000500C9C6797122D426D24ECE52CC5AC867
:104D840006D64AD056CA5EC63684328AAE892A8B83
:104D9400814463F34407B307940083C7070013896E
:104DA40014004209939A070193DA0A01135909017D
:104DB40063840A04CA976341FA04B307240183CBCA
:104DC40007005E85513F0DC99387FAFF2390F900D0
:104DD40063906B03130519002295B2502254925428
:104DE4000259F249624AD24A424BB24B456182802F
:104DF400D694C204C18071BF0145C5B70145828004
:104E0400411126C2AE8422C497F7FF1F23AEC7F216
:104E140097F7FF1F23A8B7F297F7FF1F23A2A7F264
:104E24002A8441469305F00F26854AC006C60549E3
:104E340097C0FF1FE78000656310250597F7FF1FE4
:104E4400938747EF884BC145513541469305F00F91
:104E5400228597C0FF1FE780E062854463189502AE
:104E6400224497F7FF1F9387E7ECB240924402492C
:104E7400C847C145410199BD41468145268597C032
:104E8400FF1FE7802060E31225FD4DBF41468145A9
:104E9400228597C0FF1FE780E05EE30395FCB240E4
:104EA40022449244024941018280411122C426C213
:104EB4002E84AA8413060002814517F5FF1F1305EB
:104EC40065E706C697C0FF1FE780604997F7FF1F95
:104ED400A38397E697F7FF1F238E87FAEFB0405519
:104EE400854719C181474945B240224417F7FF1F3E
:104EF4002302F7E4924441018280814781CD19C99C
:104F04008547631BF50083C7550093E707FCA3821D
:104F1400F50085473E85828089476317F50083C77E
:104F2400550093F7F703E5B70D478547E314E5FE0E
:104F340003C755001377F70313670704A382E5003B
:104F4400D1BF81478DC105C103C755009306000C2D
:104F540085471377070C6308D700930600048D4731
:104F64006303D70089473E858280411122C4005DD6
:104F740006C626C21DC8AA84085009C597D0FF1FBB
:104F8400E78080F7485009C597D0FF1FE780C0F637
:104F9400085409C597D0FF1FE78000F6228597D0F3
:104FA400FF1FE78060F523AC0402B2402244924420
:104FB4004101828009ED97F7FF1F83C7C7D717F513
:104FC400FF1F1305A5D881CB13850186828017F5B1
:104FD400FF1F1305A5D7828017F5FF1F0345A5D52D
:104FE400828097F7FF1F9387E7D4C847828097F79B
:104FF400FF1F938727D4884B828097F7FF1F9387DF
:1050040067D3DC4B8843828097F7FF1F938787D24F
:10501400D84B1C4385071CC317F5FF1F0345B5D1A7
:105024009307F00F6305F50091656FE07F8182803F
:10503400011122CC06CE2E8432C6EF704037914740
:10504400B245631FF5009387C1879C438DC303A3B7
:105054000700630E030022856244F2400561028367
:10506400938741879C4381C703A34700DDB7F24080
:105074006244054505618280011122CC2A840355CE
:10508400450006CE26CA4AC84EC6EF70601035C524
:105094002A89834405008349C500C13D4A85EF70D0
:1050A400206C03554400EF70C02B83C78188B1CBBB
:1050B4006399970483C591882685EFF0DFA119E1F0
:1050C4002384018803554400EF70602E9147631FC9
:1050D400F5000357440097F7FF1F83D707C66317EC
:1050E400F700FD5717F7FF1F2319F7C4F240624476
:1050F400D2444249B2490561828081499304F00F48
:105104006DB79307F00FE38FF4FA834664000356F8
:105114004400034524004E87A685893665B7797116
:105124005EC6AA8B2E8552CC56CA5AC806D622D43D
:1051340026D24AD04ECEAE8A328B368AEF704005E4
:105144007DC1045D2A89E5C09C50614599C313055E
:1051540040039C5481C751054205418163050A00FF
:10516400710542054181DC5081C75D0542054181DD
:10517400EFE08FA92A8445C96146814597C0FF1F86
:10518400E780E01D97F9FF1F83C9C9BF6394090035
:1051940083490900930700FD2300F400A947A300F5
:1051A40074012301F400230364018C50231254017D
:1051B4001305840191C908C47146930A440397C036
:1051C400FF1FE780201356858C5491C948C451466B
:1051D400930A450197C0FF1FE780C0115685630CF1
:1051E4000A0008C87146D285930AC50197C0FF1FFB
:1051F400E78040105685CC5099C548C85D4697C095
:10520400FF1FE780200FA2854E85EFE0CFAE22542A
:10521400B2509254F249624AD24A424BB24B4A8546
:105224000259456199B3B250225492540259F24939
:10523400624AD24A424BB24B4561828001114EC64A
:10524400AA892E854AC806CE22CC26CA2E89EF60AA
:10525400307421C997F4FF1F83C4C4B299E0834416
:1052640005001945EFE04F9A2A8405CD814519467A
:1052740097C0FF1FE780A00E930700FD2300F400F2
:10528400B947A30034012301F40023122401A285A9
:105294006244F2404249B2492685D24405616FE036
:1052A4008FA5F2406244D2444249B24905618280EA
:1052B40039715ECEAA8B2E8526DA4ED652D456D2BA
:1052C4005AD006DE22DC4AD8AE84328BB68A3A8AB9
:1052D400BE8942C6EF60D06B21CD2A894145EFE0FB
:1052E400AF922A8431C54146814597C0FF1FE780AC
:1052F400000717F5FF1F0345E5A819E10345090059
:10530400930700FD2300F400BD472301F400B247D6
:10531400A30074012312940023046401A304540120
:1053240023054401A30534015CC4A285EFE0AF9CCE
:10533400F2506254D2544259B259225A925A025BE0
:10534400F24B21618280797126D2AA8439454AD0F0
:105354004ECE06D622D42EC6B2893689EFE0CF8A45
:1053640021C1B2459307000D2310F500B1472A84EB
:105374002312B5002301F500CE851905194697C0FF
:10538400FF1FE78020F723062401A2852254B25090
:105394000259F24913F5F40F925445616FE0AF9549
:1053A400B250225492540259F2494561828017F74F
:1053B400FF1F034757989307F00F630DF70641113A
:1053C40026C2AA84394522C406C64AC0EFE0CF8368
:1053D4002A8439C9930700FD2300F500A300950032
:1053E4002301050097F5FF1F938545960D05194682
:1053F40097C0FF1FE78000F017F9FF1F1309899377
:1054040083578900A28517F5FF1F0345D5922315FD
:10541400F400834719002306F4002244B240924466
:10542400024941016FE02F8DB24022449244024967
:1054340041018280828001115AC02A8B314526CADB
:105444004EC652C456C206CE22CC4AC8AE84B28AD4
:10545400368ABA89EFD05FFB35CD2A842685EF6082
:10546400305311C50347C500A1476314F70417F966
:10547400FF1F0349598C930700FD2300F4009D4747
:10548400A30064012301F4002312940023135401A4
:105494002314440123153401A2856244F240D2440A
:1054A400B249224A924A024B4A85424905616FE059
:1054B4008F8417F9FF1F0349F99DE31E0BFA9387A5
:1054C40041919C439C47C5DBCE865286D685268572
:1054D400829755B7F2406244D2444249B249224AC3
:1054E400924A024B05618280011122CC2A84214513
:1054F40006CE2EC6EFD05FF121C1B245930700FD61
:105504002300F500C5472301F50083C73500A30137
:10551400F50083D745002312F50083C765002303F4
:10552400F50083C77500AA85A303F50022856244AC
:10553400F24005616FD03FFCF24062440561828015
:10554400397162CC2A8C594526DA4AD84ED652D4BF
:1055540056D25AD05ECE06DE22DCAE8432C636C4C3
:10556400BA8B3E8BC28A468A83590104034941049B
:10557400EFD09FE925C93246930700FDA2462300D8
:10558400F5009547A301C500A30085012301F5009B
:105594002A8419461105A9C2B68597C0FF1FE78062
:1055A40060D523066401230A2401231574012317FB
:1055B40054012318440123193401A2856254F25082
:1055C4004259B259225A925A025BF24B624C2685D6
:1055D400D25421616FD03FF2814597C0FF1FE7800D
:1055E40000D8C1B7F2506254D2544259B259225A27
:1055F400925A025BF24B624C2161828097E7FF1F53
:1056040083C767738DCB4111AA851946138501861B
:1056140006C697C0FF1FE780E0CD9385018617E596
:10562400FF1F03454571EFF05F8DB240138501867E
:1056340041016FA070600145828017E7FF1F034797
:10564400976F9307F00F6305F708411126C2AA84E8
:10565400294522C406C6EFD03FDB2A8429C193071B
:1056640000FD2300F500A1472301F500A3009500E8
:1056740097E7FF1F9387076C83C7270093850186ED
:105684001105A30FF5FE194697C0FF1FE78080C6DA
:10569400A28517E5FF1F0345156AEFD0DFE517E77D
:1056A400FF1F034747698D47631FF700938781876F
:1056B4009C4391CB03A38700630703002244B240B9
:1056C400924441010283B2402244924441018280C7
:1056D40017E7FF1F034727668D47631AF700938771
:1056E40081879C4389C703A38700E31D03FC828051
:1056F400797122D406D626D24AD04ECE52CC094451
:1057040055CD2A89035505002E8A5144EF6050284F
:10571400AA844DC597E7FF1F83C7C777FD1793F783
:10572400F70F05474944637BF7080347C500A147C2
:105734006314F70063140A089C5C4544C1E3916553
:10574400938545711305C00297C0FF1FE780E06B86
:1057540088DCAA894D443DC11306C002814597C027
:10576400FF1FE780C0BF8357090093864900368531
:105774002391F90071469305490036C697C0FF1F6F
:10578400E78040B789472380F90003C5C400B246C7
:1057940003560900611597E5FF1F83C5656F13352F
:1057A4001500EF7030422A8463060A00D2852685EC
:1057B400EF70E02A01C42685EFF02FFB2285B2505A
:1057C400225492540259F249624A4561828097E711
:1057D400FF1F83C7276CFD1793F7F70F0547637AFD
:1057E400F708894741CA011122CC26CA4AC84EC6C5
:1057F40052C406CEAA89368AB2842E89EF60501923
:105804002A84D14739C9485509C597C0FF1FE78085
:10581400A06EF145268597C0FF1FE780E0B948D404
:10582400CD4705CD8346C40021478147639FE600E9
:10583400630D0A000347A5010356050193062501DC
:10584400AA854E85EF706029AA8703474400630F39
:105854000900136767002302E400F2406244D24463
:105864004249B249224A3E85056182801367470056
:10587400DDB7C9473E8582809307000463EBA70028
:1058840097E7FF1F9387074D06053E9503550500CF
:10589400828041657D158280011122CC2A842E8567
:1058A40026CA06CEAE84EF60B00E1DCDB7470F00FA
:1058B4009387F723094563E4870281450A854146B6
:1058C40097C0FF1FE780A0A9A685231081000A8541
:1058D400418023018100A3010100EF70701AF2409E
:1058E4006244D244056182804945D5BF97E7FF1FD2
:1058F4002381A75A82806F701027797152CC2A8A2B
:10590400328522D426D24AD04ECE56CA5AC85EC652
:1059140006D662C4AE8BB28A368BBA843E89C289FB
:105924004684EF60F00615C92A8C63140A021377C3
:105934004B008347450015CF93E727012302FC0062
:105944008DEC631C0902639A090205E8ED9B2302AE
:10595400FC00832B8C0363910B08B25022549254A5
:105964000259F249624AD24A424BB24B224C456137
:105974008280F59B93E70701D1B793E747002302A1
:10598400FC0001CC1C484146A2852324FC021305DB
:105994008C0197C0FF1FE780E09563930B02D5D875
:1059A4000325CC0209C597C0FF1FE780E054F145E9
:1059B400268597C0FF1FE78020A02326AC0251BF95
:1059C400E30909F80325CC0209C597C0FF1FE78046
:1059D400A052F1454A85F1BF9DC483A70B0299EB00
:1059E400916593853571714597C0FF1FE780E0414C
:1059F40023A0AB0203A50B0219C57146A68597C067
:105A0400FF1FE780208F6388090283A74B0299EB6D
:105A14009165938525715D4597C0FF1FE780E03E42
:105A240023A2AB0203A54B0219C55D46CE8597C0E0
:105A3400FF1FE780208C1DC483A78B0299EB91651F
:105A440093851571514597C0FF1FE780003C23A43F
:105A5400AB0203A58B0219C55146A28597C0FF1F4F
:105A6400E78040892254B2509254F249B24B224CFE
:105A7400CA865A860259424BD6855285D24A624A10
:105A840045616FF0CFE9011126CA52C406CE22CC7B
:105A94004AC84EC62A8AAE84EF60806F25C5AA899B
:105AA4003945EFD07F962A8431CD17E9FF1F03498A
:105AB400692D6314090003C909009307000D23101D
:105AC400F400AD472301F400938569001305340005
:105AD400194697C0FF1FE780E08193F71400858083
